:020000040800F2
:10000000D82A0020C10100086B4300085D390008B0
:1000100069430008B3080008996600080000000062
:10002000000000000000000000000000254800085B
:1000300059100008000000006D470008254A00081C
:10004000DB010008DB010008DB010008DB01000820
:10005000DB010008DB010008DB0100085B10000881
:10006000DB010008DB010008DB010008DB01000800
:10007000DB010008DB010008DB010008DB010008F0
:10008000DB010008DB010008DB010008C1080008F3
:10009000B5080008DB010008DB010008DB010008EF
:1000A000DB010008DB010008DB010008DB010008C0
:1000B000DB010008DB010008DB010008DB010008B0
:1000C000DB010008DB010008DB010008DB010008A0
:1000D000DB010008B5510008DB010008CD51000824
:1000E000DB010008DB010008DB010008DB01000880
:1000F000DB010008DB010008DB010008DB01000870
:10010000DB010008DB010008DB010008DB0100085F
:10011000DB010008DB010008294B0008DB010008B7
:10012000DB010008DB010008A90F0008DB01000863
:10013000DB010008DB010008DB010008D90800082A
:10014000CD080008DB010008DB0100088D43000832
:10015000DB010008DB010008DB010008CF510008CB
:10016000DB010008DB010008DB010008DB010008FF
:10017000DB010008DB010008DB01000800000000D3
:10018000DB010008DB010008DB010008DB010008DF
:10019000DB010008DB010008DB010008DB010008CF
:1001A0000000000000000000DB010008DFF80CD0B8
:1001B00000F032FB00480047898A0008D82A002056
:1001C0000648804706480047FEE7FEE7FEE7FEE7F1
:1001D000FEE7FEE7FEE7FEE7FEE7FEE7D54A00089A
:1001E000AD0100080649074A0868504343F2390246
:1001F00010440860400870470149086070470000DB
:10020000180300206D4EC64140EA01039B0703D04E
:1002100009E008C9121F08C0042AFAD203E011F845
:10022000013B00F8013B521EF9D270472DE9FE4F09
:10023000804681EA0300C00F0C46009021F0004187
:1002400023F00045B8EB0200A94105D24046214603
:1002500090461C460B46024623F00040104347D010
:10026000270DC7F30A00C3F30A510290401A019008
:1002700040286BDAC3F3130040F4801B00989246C9
:1002800020B10023D2EB030A63EB0B0B0198594614
:10029000C0F14002504600F04BF906460D4650466C
:1002A0005946019A00F053F910EB0800614100240F
:1002B00087EA115284EAE7731A4340D0009A62B386
:1002C000019A012A4FEA075215DC001B61EB02017B
:1002D0004FF0004202EA0752CDE90042001C41F50E
:1002E000801132462B4600F088F903B0BDE8F08F4C
:1002F00040462146F9E7001B61EB0201001C41F575
:10030000801300185B412018A2F5001747EB03018A
:1003100040EAD570B6196D4111E06D084FEA360616
:1003200045EAC0754FEA0752001B61EB0201001C51
:1003300041F5801149084FEA300000195141324619
:100340002B4603B0BDE8F04F00F04AB900980122F7
:1003500040000023D0EB020263EBE07300982146DB
:100360004FEAE074B8EB000061EB0401E9E783F0C9
:1003700000435BE781F0004158E72DE9FE4F81EA39
:10038000030404F0004421F0004100944FF0000BFE
:1003900023F0004350EA01045ED052EA03045BD02C
:1003A000C3F30A54C1F30A552C44A4F2F334019464
:1003B000A0FB0254C1F3130141F48011C3F31303F2
:1003C00043F4801301FB024400FB034E840A970AA6
:1003D00044EA815447EA8357A4FB076802958D0AD3
:1003E00005FB07854FEA932C04FB0C542705029D5F
:1003F0004FEA065847EA1637B5EB08056EEB070CCF
:10040000870E920E47EA811742EA8312A7FB020188
:10041000B6EB0B0164EB00042B0D43EA0C335E18C2
:1004200044EB1C50DA465146E7FB0201C5F31304C6
:100430004FEA0B3343EA14534FEA0432019C43EA78
:100440000603A4F10C040294009CCDE900B400F072
:10045000D4F803B0BDE8F08F00200146F9E70EB5EF
:10046000C10F80EAE0700844CA07002140F233431C
:100470008DE80E000A460B4600F0BFF803B000BD41
:1004800000F0004230F000400AD0C10D01F560716B
:10049000C0F3160042EA0151C208400711437047F9
:1004A000002001467047000030B5002904DB4FF002
:1004B0000044404264EB0101002B04DB4FF0004498
:1004C000524264EB03038B4208BF824230BD0000FE
:1004D00030B5002904DB4FF00044404264EB0101D9
:1004E000002B04DB4FF00044524264EB03039942BB
:1004F00008BF904230BD000001F0004330B421F04D
:10050000004150EA010206D00A0DA2F56072C1F363
:100510001301002A02DC30BC00207047440F44EA7B
:10052000C104C100E01830BC00EBC25000F021B89B
:10053000202A04DB203A00FA02F1002070479140A3
:10054000C2F1200320FA03F3194390407047202A98
:1005500006DBCB17203A41FA02F043EAE07306E0EB
:1005600041FA02F3D040C2F12002914008431946FB
:1005700070470029A8BF7047401C490008BF20F001
:100580000100704710B4B0FA80FC00FA0CF050EA99
:10059000010404BF10BC704749B1CCF1200421FA1A
:1005A00004F411FA0CF118BF012121430843A3EB15
:1005B0000C01CB1D4FEA00614FEA102042BF002022
:1005C00010BC704700EBC35010440029A4BF10BCFE
:1005D0007047401C490008BF20F0010010BC704764
:1005E00010B5002B08DA401C41F1000192185B4164
:1005F0001A4301D120F0010010BD2DE9F04D9246C3
:100600009B4611B1B1FA81F202E0B0FA80F22032D9
:100610009046FFF78DFF04460F4640EA0A0041EA84
:100620000B0153465A46084313D0114653EA0100C2
:1006300019D0C8F14002504600F000F905460E46B8
:10064000504659464246FFF773FF084305D0012044
:1006500004E020463946BDE8F08D0020054346EA17
:10066000E0762C4337430A986305E40AA0EB0800C0
:100670000022FD0A44EA47540A3002D50020014610
:10068000E9E7010510196941DDE9084500196941EB
:10069000BDE8F04DA4E72DE9F04D81EA030404F034
:1006A000004B21F0004514464FF0000A23F00041B2
:1006B00050EA050220D054EA01021DD0C5F30A57C2
:1006C0000246C5F31303C1F31300C1F30A5640F405
:1006D000801543F48013A7EB0608101BD64608F2DA
:1006E000FD3873EB050002D308F1010801E0921810
:1006F0005B41B8F1000F03DA00200146BDE8F08D40
:1007000000204FF48011064684460EE0171B73EB61
:10071000050705D3121B63EB050306434CEA010CE6
:1007200049084FEA300092185B4150EA0107EDD1C9
:1007300052EA030012D082EA040083EA050108436A
:1007400005D0101BAB4106D20122002306E0002297
:100750004FF0004302E06FF0010253101AEB060065
:100760004CEB085110EB0A0041EB0B01BDE8F04DDA
:10077000FFF736BF2DE9F04D00231A461B1A8A41B8
:1007800003DB00200146BDE8F08DC1F30A52C1F33E
:10079000130141F480154FF0000BD10702D100186E
:1007A0006D41521E0027044640F2FF11384601EB0E
:1007B000620A3E468046024600204FF4801100F057
:1007C0003DF8C2197141BB1846EB0100B4EB030CB4
:1007D00075EB000C04D3E41A65EB000517460E46D2
:1007E000241908F101006D4180463428E3DDF91930
:1007F00046EB0600091BA84103D24FF0FF32134617
:1008000001E0002213461BEB070046EB0A51BDE84E
:10081000F04DFFF7E5BE0000064C074D06E0E0682E
:1008200040F0010394E8070098471034AC42F6D337
:10083000FFF7C0FC909D0008B09D0008202A04DB53
:10084000203A21FA02F00021704721FA02F3D04049
:10085000C2F12002914008431946704770B58C18C8
:1008600010F8015B15F0070301D110F8013B2A11C4
:1008700006D110F8012B03E010F8016B01F8016BB1
:100880005B1EF9D12B0705D40023521E0DD401F8AD
:10089000013BFAE710F8013BCB1A921C03E013F876
:1008A000015B01F8015B521EF9D5A142D8D30020AB
:1008B00070BDFEE7014800F06DBC00008409002017
:1008C000014800F067BC000084090020014800F0E6
:1008D00061BC0000C4090020014800F05BBC0000BE
:1008E000C409002010B54FF4D872036802EB01125E
:1008F0009B5813F00404436B9C600468436BA4583A
:1009000056D0E4085C6003689A58436B02F0020218
:10091000DA604FF4DA72036802EB01129B58446B01
:1009200003F00F032361436B196203689A58436B0A
:10093000C2F30722DA614FF4DC72036802EB0112A2
:100940009B58446B237503689B58446B1B0A637563
:1009500003689B58446B1B0CA37503689A58436B40
:10096000120EDA754FF4DE72036802EB01129B5827
:10097000446B237603689B58446B1B0A63760368B9
:100980009B58446B1B0CA37603689A58436B120E5A
:10099000DA762022002901680DD00A6101684A69CF
:1009A00022F010024A6190F83810222909D021E083
:1009B000640D1C60A7E7CA6001684A6922F0020260
:1009C000F0E701684A6922F480724A6101684A6965
:1009D00022F400724A6101684A6922F480624A6125
:1009E00001684A6922F400624A6101684A6922F496
:1009F00000424A6190F83810322907D05FF00101B7
:100A000080F8381000F0DDFD002010BD1221F7E75E
:100A1000F0B4056B00242A60056BAC60056BEC60DC
:100A2000026B136106E00D5D04F11402066B641C99
:100A3000E4B2B5549C42F6D3F0BC00F0CDBD10B585
:100A400001684A6922F001024A6190F838101229BF
:100A500018D101684A6922F480724A6101684A69C2
:100A600022F400724A6101684A6922F480624A6194
:100A700001684A6922F400624A6101684A6922F405
:100A800000424A6190F83810322906D0012180F8DE
:100A9000381000F044FE002010BD2221F7E70020AE
:100AA000704700207047000010B500220549064835
:100AB00004F05EFC03490448091F04F053FC0020C5
:100AC00010BD0000640100202803002010B501467D
:100AD000034804F047FC024804F028FC002010BD45
:100AE0002803002000B58BB000210122CDE90612B9
:100AF000039108920E220D4B0491009101910291F5
:100B00000992984204D10591094901631C3141635E
:100B10000849884205D106490592403101631C31DC
:100B20004163694600F0C2FA0BB000BD84090020A1
:100B3000700D0020C40900202DE9F041A149A24D0B
:100B40009FEDA20A884273D1416B40F205260B68E3
:100B5000A3F205229FED9E1ADFED9E0A9E4CB34242
:100B600068D01ADC161D9D4A7DD0012E01D0022EC0
:100B700011D15B1EC98ADCB24BBA04EB440102EB13
:100B800081014B80406B808A40BA888001F03EF83A
:100B900005EB8401C860BDE8F081914B012A79D052
:100BA000FA2AF8D18F490022476B02F11406BE5D84
:100BB00021F81260521C082AF6DB48880A7840EABD
:100BC000022000B200EE100A8748F8EEC00AC0ED1D
:100BD000000ACA880E7942EA062212B200EE102AF2
:100BE000B8EEC01A80ED011A4A890E7A42EA06224E
:100BF00012B200EE102AF8EEC01AC0ED021A087BFD
:100C00007A49087093ED010A06F016FF78480168EA
:100C1000B1F57A7F03D2A088401CA08004E0A188AF
:100C200061800021A180016000F0F0FF2860B2E740
:100C300082E0FFE76F480A7D0270497D41700188BC
:100C40006D4A49BA09B200EE101A4180B8EEC00AE6
:100C500020EE010A10EE101A80ED010A914205DD26
:100C600030EE600A00E038E080ED010A9FED631A83
:100C700030EE410A80ED010AB5EEC00AF1EE10FA3D
:100C800003D230EE200A80ED010A00F0BFFFA86019
:100C900081E7FFE7087D1870487D5870188858492B
:100CA00040BA00B200EE100A5880B8EEC00A20EE3A
:100CB000010A10EE100A83ED010A884203DD30EECE
:100CC000600A83ED010ADFED4F0A30EE600A83ED22
:100CD000010A00F09BFF68605DE7B2F90430D38041
:100CE000C88A40F6AC5640BA5080888A40BA01B2F1
:100CF00039489180B142007805DA41F29416B34246
:100D000001DD401C08E041F28836B14205DD40F6C5
:100D1000B836B34201DA401E2070207801EB403033
:100D200000EE900AF8EEE00A20EE800A82ED020A58
:100D300000F06CFFE8602EE733498842A8D1416B90
:100D40000968A1F50072073A01D0012AA0D1C91F94
:100D5000CCB22E4904EB440201EBC201B1F90E30D2
:100D60008B81426B928A52BA12B2CA81466BF68A62
:100D700076BA4E80406B4FF4FA66B242008B40BAAE
:100D8000888041F2707004DA834202DD4869401CB9
:100D900005E0824204DDB34202DA4869401E486140
:100DA000486902EB403000EE900AF8EEE00A20EECF
:100DB000800A81ED020A00F029FF05EB84018861B9
:100DC000E9E6000084090020EC0F002095F9153BAE
:100DD0000000343D0000B44374010020BC0F00202B
:100DE000C0010020600D0020100F0020980100209D
:100DF0003C020020B80100200000B443CDCC50429A
:100E00000000344300005842C40900205C0F002059
:100E10002DE9F04104462DED028B042004EBC001C6
:100E2000401E91ED0A0B002881ED0C0B91ED000B9B
:100E300081ED020BF2DC94ED001B224F84ED021BCE
:100E400053EC112B97ED000B51EC100BFFF795FABB
:100E5000012507F12808C4E90C0100BF04EBC50611
:100E600008EBC50096ED0C1B90ED000B53EC112B1D
:100E700051EC100BFFF781FA41EC180B07EBC500A2
:100E800096ED020B90ED001B53EC102B51EC110B67
:100E9000FFF773FA94ED0C1B53EC112BFFF7C6F917
:100EA00053EC182BFFF763FA6D1C052DC4E90C01F8
:100EB000D4DB94ED0C0B84ED160BBDEC028BBDE87E
:100EC000F0810000C80200202DE9F041314C60881B
:100ED000401C608030480168491C0160E0684EF6A3
:100EE0006021401CE060A068884201D2401CA060E4
:100EF00008F054F807F038FF07F0B0FC07F018F9D5
:100F000060880A25B0FBF5F105FB110048B906F031
:100F1000A9FE6088B0FBF5F105FB110008B908F0E7
:100F2000A1FA60885021B0FBF1F201FB120040B938
:100F30001A4D2868232801D203F0BAFC2868401C07
:100F4000286060884FF4C871B0FBF1F201FB120019
:100F5000002815D1207806F01BFE2078104D114F87
:100F60004FF480464FF0000260B13146384600F041
:100F700047FE01228021284600F042FE00206080CA
:100F8000BDE8F0818021284600F03AFE012231467A
:100F90003846F1E730020020F00100207001002007
:100FA0000010024000140240014800F0CBBB0000DA
:100FB000000D002001681823CAB2103AB2FBF3F208
:100FC000054B6FF30901032A9B5CC36500D9091D1A
:100FD0008165084670470000CC98000810B50146AE
:100FE00000208B698A6A4FF0C07453B1B3F5005F7B
:100FF00015D072B1012A0CD0022A0AD0032A09D1D5
:1010000004E01AB1012A06D0022A03D1C96AC90133
:1010100000D5012010BDC96AA142FAD010BD002A36
:10102000F7D0012AF2D0022AF3D0032AF3D010BD60
:1010300030B50468256825F4802525600468636060
:101040008368402B036803D099600068C26030BD9C
:101050009A600068C16030BD7047022000F0DEBCBD
:10106000FEE7000010B558B1084C491E0BD310F82C
:10107000013B5340DBB234F8133083EA1222F4E729
:101080004FF6FF7010BD104610BD00004E9A0008CC
:1010900010B5054C04E000BF10F8013B5340E25C82
:1010A000491EF9D2104610BD4E990008F0B50A7DD0
:1010B00001209040344A136843F001031360136821
:1010C00023F47C53136013684C6A43EA04231360CF
:1010D0002D4B1C331C6884431C602B4D2B4CCE695C
:1010E0000C35A6B92E6886432E608F894E6867F34B
:1010F0001F464F6904EBC707C7F840660F890E68A3
:1011000067F31F464F6904EBC707C7F84466CE690B
:10111000012E14D12E6806432E600E884D6866F3AA
:101120001F454E6904EBC606C6F840560E89CD68C9
:1011300066F31F454E6904EBC604C4F84456124CCE
:101140008D69241D002D256806D0054325600E4CB1
:101150000D69143415B104E08543F7E7256885432C
:1011600025600D69012D02D1256805432560096AB6
:10117000012902D1196801431960106820F00100AB
:1011800010600020F0BD00000066004000600040DC
:101190007047000010B5044600684169C943C9079B
:1011A00014D182685849914368D000218368574A16
:1011B0009A4365D0002283685548984362D0002046
:1011C0001143014302D02046FFF739FC2068C16873
:1011D000406911F0030FC0F3400004D018B10021A2
:1011E0002046FFF77FFB21680869496910F0030F6B
:1011F000C1F3001104D019B101212046FFF772FBA1
:1012000020688169426911F0010FC2F3002342692D
:10121000C2F3C03205D023B11AB1E16B41F0010134
:10122000E1638169C1F3400341694269C1F340212F
:10123000C2F3C0322BB121B11AB1E16B41F002010E
:10124000E16381694269C1F38001C2F3802342698D
:10125000C2F3C03229B123B11AB1E16B41F00401EC
:10126000E163816911F0700F0ED00021426943697A
:10127000C2F3C022C3F3C03341B127E0012195E797
:10128000012298E701209BE70121EFE7F2B1EBB1E2
:10129000816901F07001402929D006DC102909D0AC
:1012A00020290BD030290DD11DE0502923D06029F1
:1012B00008D124E0E16B41F0080102E0E16B41F06C
:1012C0001001E163816921F070018161E06B002808
:1012D00008D0216804204860012084F838002046A6
:1012E000FFF756FF10BDE16B41F02001E9E7E16B2C
:1012F00041F04001E5E7E16B41F08001E1E7E16B9E
:1013000041F48071DDE700000300000400030008E1
:10131000000003102DE9F041040004D094F83800D7
:10132000002518B107E00120BDE8F08184F83950AC
:10133000204600F093F8022084F838002068016805
:1013400021F0020101602068016841F001010160A3
:1013500000F05CFC0746032605E000BF00F056FCE9
:10136000C01B0A2863D820684068C007F6D02068F0
:101370004168C90768D0A169012901683FD021F0FF
:1013800080010160E0690128206801683AD021F0FD
:1013900040010160206A01282068016835D021F0F1
:1013A00020010160606A01282068016830D021F0C6
:1013B00010010160A06A0128206801682BD021F08B
:1013C00008010160E06A01282068016826D021F048
:1013D00004010160D4E902010843D4E90412114375
:1013E00008436168491E08432168C8612068016894
:1013F00021F00101016000F009FC07461CE041F00A
:101400008001BEE741F04001C3E741F02001C8E799
:1014100041F01001CDE741F00801D2E741F00401AD
:10142000D7E700BF00F0F2FBC01B0A2804D904F87C
:10143000386F0320657077E720684068C007F1D1F6
:1014400020684068C00703D0042084F838006AE7A9
:10145000E563012084F83800002065E7F0B5324BE1
:101460000768DFF8C0C018680322022409252F4945
:101470000026401C87B0674521D11860012807D19C
:10148000086840F000700860086800F0007005907F
:101490008DE85400CDE903256946254800F0CAFAD5
:1014A00001221146132000F06BFC132000F05DFCBC
:1014B00001221146142000F063FC14202EE0DFF816
:1014C00074C067452CD10F6847F080670F600F68C4
:1014D000012807F080670597186007D1086840F079
:1014E00000700860086800F0007005904FF44050EC
:1014F0008DE85100CDE9032569460F4800F09AFABE
:10150000012211463F2000F03BFC3F2000F02DFC63
:1015100001221146402000F033FC402000F025FC61
:1015200007B0F0BD00640040680100204038024070
:10153000000C0240006800400004024010B590F822
:101540003820012A01D0122A39D190F83920012AF5
:1015500035D0012280F8392090F83820122A29D07D
:101560005FF0220280F838200022C26303685C69C1
:1015700044F480745C6103685C6944F400745C61E9
:1015800003685C6944F480645C6103685C6944F4EA
:1015900000645C6103685C6944F400445C6180F849
:1015A000392000680029416906D041F010014161ED
:1015B000002010BD3222D5E741F00201F7E70220FA
:1015C00010BD10B50446FFF7B7FA2046BDE810403D
:1015D0000021FFF7B3BF000070B5036899684901A7
:1015E00005D49968090102D49968C9007ED590F89C
:1015F0003910012907D0012180F839109968490173
:1016000003D5002207E0022070BD9968090101D5C9
:10161000012200E002224FF4C07101EB02115C587C
:1016200004F001045C50036B9C68002C67D00668D2
:1016300075582543DC685B6844EAC3031D43755055
:10164000036B1C7C04F00F041C614FF4C27304682C
:1016500003EB0213E55825F00F05E5500468E55843
:10166000066B36693543E550036B4FF4C47505EBE3
:1016700002151C7DD3F8153044EA03230468635136
:10168000036B4FF4C67505EB02121C7ED3F81930BC
:1016900044EA03230468A35090F83820222A37D064
:1016A0005FF0120280F838200022C26380F83920EF
:1016B0000268536943F4807353610268536943F4C9
:1016C000007353610268536943F480635361026895
:1016D000536943F4006353610268536943F4004360
:1016E00053610268536943F0010300E012E0536163
:1016F0000068425842F001024250002070BD046868
:101700006558DE681B88354345EA4353635097E7C5
:101710003222C7E7042180F83810012070BD7047DD
:1017200090F83510022903D08021416501207047CF
:10173000052180F835100068016821F00101016081
:10174000002070472DE9F84304464FF00008CDF81B
:10175000008064484FF41651A56D0068B0FBF1F7A6
:101760002E6894F85C10082000FA01F131420FD085
:1017700021680A6852070BD50A6822F004020A6041
:1017800094F85C108840A860606D40F001006065CE
:1017900094F85C1054488840304208D02168496968
:1017A000090604D5A860606D40F0020060654E48EF
:1017B00094F85C10C01C8840304208D02168096849
:1017C000890704D5A860606D40F00400606594F856
:1017D0005C1010208840304218D021680968090741
:1017E00014D5A86020680168490304D50068000387
:1017F00008D5A16C07E00168C90503D4016821F090
:1018000008010160216C09B12046884794F85C10FA
:101810002020884030424FF0010631D0216809680D
:10182000C9062DD5A86094F8350005282068016800
:1018300006D0490347D5006800031DD4616C1CE045
:1018400021F0160101602068416921F080014161A9
:10185000206C08B9A06C20B12068016821F0080153
:10186000016094F85C103F208840A86084F83480C0
:1018700084F83560216D1FE0E16B09B1204688478F
:10188000606D00282BD0606DC00714D0052084F84F
:1018900035002068016821F0010101600098401CBA
:1018A0000090B84203D820680068C007F6D184F8D9
:1018B000348084F83560E16C002910D001B02046F6
:1018C000BDE8F04308470168C905D5D4016821F097
:1018D0001001016084F8348084F83560CCE7BDE8FD
:1018E000F88300006C010020010080002DE9F04128
:1018F000044600F08BF906465CB1002584F83450AC
:10190000022084F835002068016821F0010101609F
:101910000DE00120BDE8F08100F078F9801B05287A
:1019200005D920206065032084F83500F2E720689F
:101930000068C007F0D1226811681F480140D4E94F
:1019400001031843D4E9033633431843636918434A
:10195000A3691843E3691843236A18430843616A7B
:10196000042903D1D4E90B131943084310602068FC
:101970004069666A20F0070130460E4301270428BB
:101980000AD1A06A06432046FFF728FB20B1402079
:10199000606584F83570BCE7206846612046FFF733
:1019A00009FB94F85C203F2191408160656584F8D3
:1019B00035700020AEE700003F8010F070B504469F
:1019C00090F83400002501280CD0012084F8340060
:1019D00094F835600020012E06D084F834000225EA
:1019E000284670BD022070BD022684F8356060650F
:1019F0002046FFF71DFB2068016841F001010160EE
:101A0000EEE731B500F002F9044600F0FFF8009966
:101A1000001B8842F9D338BD70470000044910B557
:101A20000A68024202D00860FFF7F6FF10BD00000E
:101A3000143C01402DE9F84FDFF890B100224FF03F
:101A400001084FF0030A4FF00F090BF1040E00BF1D
:101A50000B6808FA02F42340A3426ED14D68022DB0
:101A600001D0122D0ED1D50800EB850CDCF82050EA
:101A70005607F70E09FA07F6B5430E69BE402E4326
:101A8000CCF82060066855000F790AFA05FC07F0CB
:101A9000030726EA0C06AF40374307604E68012E65
:101AA00005D0022E03D0112E01D0122E0ED1876840
:101AB000CE6827EA0C07AE403E4386604668A643E0
:101AC0000C79C4F30014944034434460C4688E68B5
:101AD00024EA0C04AE402643C6604C68E4006FD58F
:101AE0003B4C256845F480452560246822F00305B9
:101AF00004F480440094374C2E19D6F80848950712
:101B00002F0F09FA07F5AC43334DA84201D1002548
:101B10002EE0324DA84201D1012529E0304DA842E6
:101B200001D1022524E02F4DA84201D103251FE059
:101B30002D4DA84202D104251AE041E02B4DA842C8
:101B400001D1052514E02A4DA84201D106250FE058
:101B5000284DA84201D107250AE0274DA84201D10E
:101B6000082505E0254DA84201D1092500E00A25F8
:101B7000BD402543C6F80858DBF800405D464E6876
:101B80009C43F60300D51C432C60DEF800407546EC
:101B90004E689C43B60300D51C432C600B4D0835A2
:101BA0002C684E689C43F60200D51C432C60074D00
:101BB0000C352C684E689C43B60200D51C432C6043
:101BC000521C102AFFF444AFBDE8F88F003C0140DE
:101BD000443802400030014000000240000402404E
:101BE00000080240000C02400010024000140240B5
:101BF00000180240001C0240002002400024024065
:101C00000AB1816170470904FBE7000001480068E0
:101C1000704700000000002002480168491C016074
:101C200070470000000000200B4810B5016841F427
:101C300000710160016841F480610160016841F454
:101C400080710160032000F0BBF8002000F006F86E
:101C500000F018F8002010BD003C024010B504460A
:101C600007484FF47A710068B0FBF1F001F081F998
:101C700000222146501E00F083F8002010BD000015
:101C80006C01002010B5052000F09AF800221146E2
:101C90006FF00B0000F074F8002211466FF00A009C
:101CA00000F06EF8002211466FF0090000F068F8AD
:101CB00000221146501F00F063F800221146101F49
:101CC00000F05EF800221146901E00F059F8002244
:101CD000BDE810401146501E00F052B82DE9F04109
:101CE00016460F46040004D094F83900002518B1B8
:101CF00007E00120BDE8F08184F83850204601F06B
:101D00005BFD242084F839002068C16821F400516B
:101D1000C160204603F0C6F82068016921F49041B3
:101D200001612068416921F02A014161206801694F
:101D300021F00F01016120680169394301612068C8
:101D4000C16821F40061C1602068C1683143C1608D
:101D50002068C16841F40051C160E563202084F827
:101D6000390084F83A000020C4E700F01F02012186
:101D700091404009800000F1E020C0F80011704758
:101D8000F0B40E4B1B680C46C3F30223C3F10705E6
:101D9000042D00D90425191D072901D2002300E0D4
:101DA000DB1E012606FA05F1491E214099409E409E
:101DB000761E16403143F0BC02F0D8BA0CED00E0BC
:101DC000064900F0070208684FF6FF03184040EA92
:101DD0000220034A10430860704700000CED00E049
:101DE0000000FA050068416200207047F0B5006805
:101DF0000023446A31B1856A4FF4827604EB1544BE
:101E00004D1E0AE044EA024181620FE006EB8307BF
:101E1000C7595B1C04EB1744DBB2AB42F6D34FF45B
:101E2000807303EB810144EA024242500020F0BD7E
:101E3000D0F8B40303F0DABCC1EBC10200EB8202BC
:101E4000D0F8B403526C03F047BCC1EBC10200EB05
:101E50008202D0F8B403D2F8E82103F092BCD0F8A3
:101E6000B40303F0C5BC10B504460A460B0601F0E6
:101E70007F00C0EBC00104EB810101D5383101E0E6
:101E800001F5EE710870D009487094F880030128BC
:101E900009D0012084F88003206803F0A3FF00200C
:101EA00084F8800310BD022010BD70B50A460446B8
:101EB000090602F07F0005D5C0EBC00104EB8101EB
:101EC000383105E0C2EBC20104EB810101F5EE718E
:101ED00000258D700870D009487094F8800301289F
:101EE00009D0012084F88003206804F032F984F8D6
:101EF0008053002070BD022070BD01F07F01C1EB56
:101F0000C10100EB8100B0F8F40180B2704770B5F8
:101F100004460D460E0601F07F00C0EBC00104EB45
:101F2000810101D5383101E001F5EE71ED0908704C
:101F30004D708A60CB7000D0C8800025022B00D184
:101F40000D7194F88003012809D0012084F88003E2
:101F5000206803F09FFE284684F8805370BD02205D
:101F600070BD000070B504460E4601F07F00C0EB66
:101F7000C00104EB81010025C1F8E821C1E97C35ED
:101F800081F8DD5181F8DC01206901F5EE7101284D
:101F900000D10A6194F8800301280DD0012084F853
:101FA00080037006227C206808D004F033F900BF5B
:101FB00084F88053002070BD022070BD04F00AF840
:101FC000F6E770B50D460446090605F07F0005D515
:101FD000C0EBC00104EB8101383105E0C5EBC50160
:101FE00004EB810101F5EE7101228A700870E809A5
:101FF000487094F88003012807D084F88023206873
:1020000004F0D9F8680602D007E0022070BD217CF8
:1020100004F56172206804F07DF8002084F88003E4
:1020200070BD70B504460E4601F07F00C0EBC001E4
:1020300004EB810100254A64C1E91335012381F8CD
:10204000393001F8380F2069012800D10A6194F86D
:10205000800301280BD084F880337006227C20682E
:1020600007D004F0D7F884F88053002070BD022018
:1020700070BD03F0AFFFF6E72DE9F84F04460068A6
:102080000026054604F01AFA002875D1206804F0ED
:102090003EFA002870D0206804F039FA800704D591
:1020A0002068416901F002014161206804F02FFAC3
:1020B000010304F561704FF0010B4FF0000A00902E
:1020C0004DD5206804F005FA074646E0F80742D0EF
:1020D000F1B2206804F013FA8046C00728D005EB5F
:1020E0004612C2F808BB2069012811D1C6EBC60010
:1020F00004EB8001D2F8102BD1F8E401C2F31202F4
:10210000821AC1F8F421D1F8E8211044C1F8E8019D
:10211000F1B22046FFF799FE2069012808D13EB9A7
:10212000D4F8F00120B920680121009A03F0F2FFF1
:102130005FEA087007D5204600F0E8FA05EB461183
:102140000820C1F8080B5FEAC86004D505EB46110A
:102150001020C1F8080B7F08761C002FB6D120682C
:1021600004F0D5F940034FF040095ED5206804F033
:10217000A9F90746002656E0D2E1F80751D0F1B29E
:10218000206804F0ADF98046C00724D0D5F8342883
:102190000BFA06F08243C5F8342805EB4610C0F868
:1021A00008B92069012807D1C6EBC60004EB8000FE
:1021B000D0E9101211444164F1B22046FFF73CFE11
:1021C0002069012807D136B9E06C20B920680121C7
:1021D000009A03F09FFF5FEA087004D505EB4611F3
:1021E0000820C1F808095FEAC86004D505EB46116C
:1021F0001020C1F808095FEA486003D505EB4611D5
:10220000C1F808995FEA887004D505EB46110220F1
:10221000C1F808095FEA086003D53146204602F09C
:10222000BBF87F08761C002FA7D1206804F06FF957
:1022300000280DDAD5F8040820F00100C5F80408DC
:10224000204600F049FA2168486900F000404861E2
:10225000206804F05CF900050BD5D5F80808C00724
:1022600002D0204600F06EFA2068416901F4006156
:102270004161206804F04BF9C0044CD5D5F804083E
:1022800020F00100C5F804080021206804F0E6F8F9
:102290000020FF2107E000BF05EB4012C2F808193B
:1022A000C2F8081B401C62688242F5D84FF0FF302C
:1022B000C5F81808D5F81C0840F00110C5F81C082E
:1022C000206B60B1D5F8840840F00B00C5F8840895
:1022D000D5F8440840F00B00C5F844080BE0D5F8E9
:1022E000140840F00B00C5F81408D5F8100840F0A9
:1022F0000B00C5F81008D5F8000820F4FE60C5F8FA
:102300000008217C2068009A03F004FF21684869D6
:1023100000F480504861206804F0F9F880047DD50D
:10232000206803F0F7FC2068C16821F47051C16097
:10233000206804F0A5F878B10320C4F81490E06098
:1023400000F0D6FA7749784A014491420AD22068CF
:10235000C16841F4705158E04FF40070C4F80CA00B
:10236000606136E07149724A0144914204D22068AA
:10237000C16841F4605148E06E496F4A014491429E
:1023800004D22068C16841F450513EE06B496C4A68
:102390000144914204D22068C16841F4405134E0C4
:1023A0006849694A0144914204D22068C16841F4F5
:1023B00030512AE06549664A0144914204D22068BE
:1023C000C16841F4205120E06249421862498A42C2
:1023D00004D22068C16841F4105116E05F49604A98
:1023E0000144914204D22068C16841F400510CE0DC
:1023F0005C4908445C4988422068C16803D241F4C2
:10240000E05102E00AE041F4C051C160204600F012
:1024100053F92068416901F400514161206804F0DA
:1024200076F8C00636D52168886920F010008861EA
:10243000D5F8208008F00F00C0EBC00004EB800747
:10244000C8F3434007F5EE77022802D0062812D0E1
:102450001BE047F6F07018EA000F16D0C8F30A1216
:1024600090462846F96804F056F8F8684044F86049
:10247000B869404408E008222846009904F04BF867
:10248000B969C8F30A100844B8612068816941F04D
:1024900010018161206804F03AF8000707D5204652
:1024A00000F01EF92068416901F0080141612068CF
:1024B00004F02DF8C00208D5F1B2204600F056F81D
:1024C0002068416901F480114161206804F01FF81F
:1024D000800208D5F1B2204600F04CF8206841692E
:1024E00001F400114161206804F011F8400007D5A3
:1024F0002046FFF79DFC2068416901F08041416161
:10250000206804F004F840070AD520684568680789
:1025100002D52046FFF7A3FC2068416829434160AB
:10252000BDE8F88F405327FF00350C00401E1BFF0D
:1025300040420F0000DC0BFF804F1200808CF9FE40
:1025400020D6130060B6E5FE60E3160000D3CEFE91
:1025500040771B00C05BB3FEC091210000CA91FE12
:1025600020753800E05459FEE09C4100D0F8B403D7
:1025700003F08EB9D0F8B40303F08CB9F0B58BB08A
:1025800004004FF0000556D0032084F88103204654
:1025900000F054F8206803F017FD04F11001282220
:1025A0000F466846FDF730FE94E80F0003F0CCFBC1
:1025B0000021206803F0BFFF01260020C5EBC50104
:1025C00004EB810181F8396001F8385FCD80C87073
:1025D0008860C8606D1C48610F2DEFD300214FF457
:1025E000827300BFC1EBC10204EB820203EB8105E1
:1025F00082F8DD0182F8DC11D18782F8DF01C2F8B0
:10260000E401C2F8E801C2F8F00122685051491C07
:102610000F29E7D3282239466846FDF7F5FD94E8EF
:102620000F0003F02FFC84F88163206803F01DFC89
:1026300000200BB0F0BD0120FBE70000F0B5006802
:1026400087B0B0F1A04F31D14FF480500224CDE9D2
:10265000000402AA012003250A2682E86100144F23
:1026600069463846FFF7E6F9A002CDE9000402AA60
:10267000002082E8610069463846FFF7DBF90D4823
:10268000016841F0800101600A481030016841F49E
:10269000804101600068022200F480400590012121
:1026A0004320FFF76DFB4320FFF75FFB07B0F0BD52
:1026B000000002403438024010B50446C0680121D1
:1026C00000B90021D4F8B40303F028F9D4F8B40316
:1026D000BDE8104003F0F1B8D0F8B40303F00CB932
:1026E000D0F8B40303F00EB910B5044690F8800397
:1026F000012809D0012084F88003206803F031FF0D
:10270000002084F8800310BD022010BDD0F8B4234F
:1027100000F56171104603F00BB910B5044690F84E
:10272000800301280CD0012084F88003206803F086
:1027300090FB206803F07CFE002084F8800310BD2D
:10274000022010BD10B50446D0F8B40303F02BF9F5
:102750002068D0F8001E41F00101C0F8001E206A78
:10276000002804D00248016841F00601016010BD54
:1027700010ED00E02DE9F047DFF8649105460F46C3
:10278000D9F8000000F00F01F8B28046B94208D233
:10279000014689F80010D9F8000000F00F00B84297
:1027A00074D128784F4C800705D52068A96820F09F
:1027B000F000084320602878C00759D0494968686C
:1027C000083901281AD002281BD0032819D009681B
:1027D000890700295ADA216821F0030101432160A9
:1027E000FFF714FA6968064641F28830012911D0D2
:1027F00002291DD00329824627D035E009688903C4
:10280000E7E709688901E4E7FFF700FA811B514512
:1028100001D926E082462068C0F381000128F3D167
:1028200026E000BFFFF7F2F9811B514501D918E0FE
:1028300082462068C0F381000228F3D118E000BF6F
:10284000FFF7E4F9811B51450BD82068C0F38100E4
:102850000328F5D10CE000BFFFF7D8F9811B5145E3
:1028600002D90320BDE8F087206810F00C0FF3D1E7
:10287000D9F80010484601F00F01B94208D980F894
:102880000080006800F00F00B84201D00120E9E7A5
:102890002878400705D52068E96820F4E05008430F
:1028A00020602878000706D52068296920F4604058
:1028B00040EAC100206000F051F82168F02292FA4D
:1028C000A2F201F0F001B2FA82F2D140064A515C64
:1028D000C840064908600020FFF7C0F90020C1E7A2
:1028E000003C024008380240BC9800086C010020FF
:1028F00001480068704700006C0100200848094941
:10290000006809684FF4E05292FAA2F201F4E05133
:10291000B2FA82F2D140044A515CC84070470000CC
:102920006C01002008380240BC980008084809499A
:10293000006809684FF4604292FAA2F201F4604123
:10294000B2FA82F2D140044A515CC840704700009C
:102950006C01002008380240BC98000830B51948C6
:10296000006810F00C01184812D0184C04290ED041
:1029700008290DD11349091F0A6802F03F030A68AC
:10298000550247F6C07204D5B4FBF3F003E02046CD
:1029900030BDB0FBF3F00B680968134092FAA2F265
:1029A000B2FA82F2D34058434FF4403292FAA2F284
:1029B00001F44031B2FA82F2D140491C4900B0FB27
:1029C000F1F030BD083802400024F400001BB700CD
:1029D0002DE9F84F0446DFF8CC820078A8F1040B0B
:1029E000C007ABF1040537D0D8F800104046C1F35A
:1029F0008101012908D00068C0F3810002280AD1B2
:102A0000DBF80000400206D52868800324D5606802
:102A1000002878D020E0A3492079891F08706068D9
:102A200068B1FFF7F3F8064605E000BFFFF7EEF8E0
:102A3000801B642868D828688003F7D50CE0FFF76E
:102A4000E5F8064605E000BFFFF7E0F8801B6428C4
:102A5000F0D828688003F7D42078934E80074FF091
:102A6000010A4FF0000742D5D8F80010404611F097
:102A70000C0F08D00068C0F3810002280AD1DBF8EF
:102A80000000400206D42868800714D5E0680128B9
:102A900039D110E0E068D8B1C6F800A0FFF7B6F869
:102AA000814605E0FFF7B2F8A0EB09000228C1D883
:102AB00028688007F6D52868F82292FAA2F22169E0
:102AC000B2FA82F220F0F8009140084328600EE04C
:102AD0003760FFF79BF8814606E000BFFFF796F8E6
:102AE000A0EB090002280FD828688007F6D42078C8
:102AF000000728D56D486169A1B1C0F800A0FFF7B3
:102B000085F8814608E0CAE079E000BFFFF77EF86B
:102B1000A0EB0900022872D862486C300068800778
:102B2000F4D510E00760FFF771F8814606E000BFBA
:102B3000FFF76CF8A0EB0900022860D859486C3008
:102B400000688007F4D42078400749D555483830CC
:102B5000016841F080510160006800F080500090F1
:102B60005348016841F480710160FFF74FF88146D6
:102B700006E000BFFFF74AF8A0EB090002283ED8A4
:102B80004B480068C005F5D5DFF81891207A09F1A7
:102B9000680989F80000A06888B1FFF737F800904D
:102BA00008E000BFFFF732F80099411A41F288307F
:102BB00081426CD8D9F800008007F3D510E0FFF708
:102BC00025F8009008E000BFFFF720F80099411AAF
:102BD00041F2883081425AD8D9F800008007F3D4F6
:102BE000A069E0B3D8F80010C1F38101022956D0E2
:102BF0000228376604D0FFF709F804464AE046E0A9
:102C0000FFF704F8074604E0FFF700F8C01B0228AE
:102C10003DD828688001F7D4D4E90701084347F676
:102C2000C07292FAA2F2616AB2FA82F29140A26A8A
:102C30004FF0FF3303EB52024FF4403393FAA3F308
:102C4000B3FA83F39A40114308434FF0706292FA4B
:102C5000A2F2E16AB2FA82F29140084300E01CE07D
:102C6000CBF80000C6F860A0FEF7D0FF044604E0F1
:102C7000FEF7CCFF001B022809D828688001F7D591
:102C80000BE000BFFEF7C2FF001B022802D90320A1
:102C9000BDE8F88F28688001F4D40020F8E701200F
:102CA000F6E700000838024000004742800E474225
:102CB0000070004070B5040005D00025A56294F8AE
:102CC000510010B106E0012070BD84F8505020463C
:102CD00000F030F8022084F851002068016821F0EB
:102CE00040010160D4E901010843D4E90312114312
:102CF000084361690843218B01F400710843E169CD
:102D00000843216A0843A16A084321680860A06952
:102D1000042101EA1040616A084321684860206884
:102D2000C16921F40061C1616565012084F8510029
:102D3000002070BD00B500680E4987B0884217D1E9
:102D40000D480021026842F480120260006800F41D
:102D5000801005904FF4607000900220CDE90101D1
:102D6000032003900520049069460448FEF762FEA4
:102D700007B000BD0050014044380240001402403A
:102D80002DE9F84F044690F8500000260A9F9A4615
:102D900093460D464FF0010801280ED0012084F81B
:102DA0005000FEF733FF814694F851006168012816
:102DB0000CD0B1F5827F07D102E00220BDE8F88F88
:102DC000A16809B9042801D00226BDE055B1BBF1C4
:102DD000000F07D0BAF1000F04D094F85100012879
:102DE00002D004E00126AFE0052084F85100002065
:102DF0006065C4F838B0A4F83EA0A4F83CA02563F0
:102E0000A4F836A0A4F834A02064606420680168A7
:102E1000490603D4016841F040010160E068B0F563
:102E2000006F606804D0E8B3E08E01283BD06AE010
:102E300010B1E08E01282ED1216835F8020BC86050
:102E4000E08E401EE08626E0B8F1000F0DD0E08E47
:102E500058B120688168890707D535F8021BC16021
:102E6000E08E401EE0864FF00008E08F58B12068E9
:102E70008168C90707D0C0682BF8020BE08F401E9D
:102E8000E0874FF00108781C05D0FEF7BFFEA0EBED
:102E90000900B84246D2E08E0028D5D1E08F002844
:102EA000D2D136E0FFE7216815F8010B0873E08EF8
:102EB000401EE08627E000BFB8F1000F0DD0E08E85
:102EC00058B120688168890707D515F8011B01737F
:102ED000E08E401EE0864FF00008E08F58B1206879
:102EE0008168C90707D0C0680BF8010BE08F401E4E
:102EF000E0874FF00108781C05D0FEF787FEA0EBB5
:102F00000900B8420ED2E08E0028D5D1E08F00280B
:102F1000D2D13B46012202212046CDF8009001F09B
:102F200036FC08B103260FE04A463946204601F038
:102F30001EFC18B101262020606505E0A06818B9C4
:102F40002068C16880680090012084F8510000204A
:102F500084F85000304631E74FF0E021042808693A
:102F600003D020F004000861704740F00400FAE745
:102F7000704710B5401EB0F1807F01D3012010BD15
:102F80004FF0E02460610F21601701F0EFF900209D
:102F9000A06107202061002010BD10B5FFF7E8FFF9
:102FA00010BD7047704730B590F83820012A19D00D
:102FB000012200F8382F02234370D1E90034234363
:102FC000D1E902452C4323430C6923434C698969A9
:102FD00023430B4350F8381C4B64427000210170AE
:102FE000084630BD022030BD30B590F83820012AA7
:102FF00020D0012280F83820022380F8393003687D
:103000005C6824F070045C6003685C680D682C43A5
:103010005C6003689C6824F080049C6003689C6882
:1030200049680C439C6080F83920002180F83810F2
:10303000084630BD022030BD10B5040003D094F81E
:10304000390010B107E0012010BD002084F83800DD
:10305000204600F00DF8022084F83900211D206878
:1030600001F06CFD012084F83900002010BD000043
:1030700008B501682948B1F1804F0BD0284A914228
:1030800010D1016841F002010160006800F0020007
:10309000009008BD016841F001010160006800F086
:1030A0000100F5E71F4A914207D1016841F0040190
:1030B0000160006800F00400EAE71B4A914207D172
:1030C000016841F008010160006800F00800DFE7D6
:1030D000164A914211D1016841F010010160006867
:1030E000002200F01000009001213620FEF748FE7B
:1030F000BDE808403620FEF738BE0D4A914202D1A5
:103100000648001DBDE70B4A9142C2D1016841F05B
:1031100040010160006800F04000B9E7403802401B
:103120000004004000080040000C00400010004077
:1031300000040140001800400168CA6842F0010222
:10314000CA600068016841F0010101600020704719
:1031500070B5044690F83800012817D0012584F88E
:103160003850022084F839002068826822F0770203
:1031700022F47F4282600868502837D00DDC202876
:1031800059D005DC88B3102841D151E0022070BD30
:10319000302853D040283AD13FE060282ED0702804
:1031A0000BD0B0F5805F03D0B0F5005F2FD110E0F9
:1031B0002068816821F0070115E0CB68D1E9012181
:1031C000206801F026FD2168886840F0770088605B
:1031D0001DE0CB68D1E90121206801F01AFD2068CB
:1031E000816841F48041816011E01EE0CA6849684D
:1031F000206801F0D7FD5021206806E0CA684968C0
:10320000206801F0E0FD6021206801F00CFD84F8E9
:103210003950002084F8380070BDCA6849682068B9
:1032200001F0C0FD40212068EFE700212068ECE7B5
:1032300010212068E9E720212068E6E73021206896
:10324000E3E7704770B50446006801694FF0000578
:10325000C943890715D4C168C943890711D4E91E38
:10326000016101202076206880698007204602D015
:10327000FFF7E7FF04E000F00BF9204600F08DF9BE
:10328000257620680169C943490717D4C168C94335
:10329000490713D46FF004010161022020762068F1
:1032A000806910F4407F204602D0FFF7CAFF04E097
:1032B00000F0EEF8204600F070F9257620680169EC
:1032C000C943090716D4C168C943090712D46FF06E
:1032D00008010161042020762068C069800720462B
:1032E00002D0FFF7AEFF04E000F0D2F8204600F075
:1032F00054F9257620680169C943C90617D4C16805
:10330000C943C90613D46FF010010161082020766B
:103310002068C06910F4407F204602D0FFF791FF7B
:1033200004E000F0B5F8204600F037F92576206873
:103330000169C943C90708D1C168C943C90704D194
:10334000891E0161204600F045F920680169C943E2
:10335000090609D4C168C943090605D46FF0800184
:1033600001612046FFF71DFE20680169C943490637
:1033700009D4C168C943490605D46FF04001016111
:10338000204600F028F920680169C94389060BD45A
:10339000C168C943890607D46FF020010161204646
:1033A000BDE87040FFF7FEBD70BD000070B501685C
:1033B00000240225012086B0B1F1804F09D02A4AAD
:1033C000914213D110200090CDE90154694627485D
:1033D0002CE00F210091CDE90154CDE903402448B0
:1033E000694600BFFEF726FB06B070BD214A914238
:1033F00007D14FF470400090CDE9015469461E4852
:1034000014E01E4B1E4A1F4E994212D10090CDE986
:10341000015469461046CDE90345FEF70BFB4FF416
:10342000E0500090CDE9015469463046CDE90345AE
:10343000D8E71548814209D1E4200090CDE9015434
:103440000320CDE9034069461046CBE70F4881428F
:10345000CAD14FF410700090CDE901540920CDE994
:10346000034069463046BDE70004004000040240C6
:103470000000024000080040000C0240000C004028
:1034800000200240001C02400004014000180040DF
:10349000704770B5044690F838000D4601280DD0ED
:1034A000012684F83860022084F8390042B1042AE9
:1034B00018D0082A2AD00C2A4DD139E0022070BD3C
:1034C000206801F0B9FB2068816941F00801816141
:1034D0002068816921F004018161206881692A697D
:1034E000114311E0206801F0D3FB2068816941F4A9
:1034F000006181612068816921F4806181612068B7
:1035000081692A6941EA0221816124E0206801F091
:10351000F1FB2068C16941F00801C1612068C169FF
:1035200021F00401C1612068C1692A69114311E0D9
:10353000206801F00FFC2068C16941F40061C1619D
:103540002068C16921F48061C1612068C1692A696C
:1035500041EA0221C16184F83960002084F8380012
:1035600070BD10B5040003D094F8390010B107E025
:10357000012010BD002084F83800204600F00CF82F
:10358000022084F83900211D206801F0D7FA0120BB
:1035900084F83900002010BD7047704710B504460C
:1035A0000068012201F02AFB08492068884202D005
:1035B0000749884203D1416C41F4004141642068CD
:1035C000016841F001010160002010BD00000140D0
:1035D000000401407047704770B5154C20680668BC
:1035E000C568B10606D5A90604D54068114908701A
:1035F00001F068F9300619D5280617D50F480E498D
:10360000827823688A5C5A608278521C8270827841
:10361000C07882420AD12068C26822F08002C2606B
:10362000002002460A54401CFF28FBDD70BD00004C
:10363000C00C0020540E002062110020A8020020BF
:103640007047000070B5026804461068D16853697D
:1036500010F00F0F51D003F0010501F490763543BF
:103660005DD0C20705D0CA0503D5E26B42F0010266
:10367000E263420705D5DA0703D0E26B42F00202AB
:10368000E263820705D5DA0703D0E26B42F0040259
:10369000E263020705D5DA0703D0E26B42F00802C5
:1036A000E263E26B002A34D0800604D5880602D596
:1036B000204601F0B0FB20684069E16BC0F3801048
:1036C00001F008010143204624D001F096FB206858
:1036D000416949061AD5416921F040014161606B99
:1036E000A0B11B490165606BFEF71AF8002810D0E5
:1036F000606B016DBDE87040084783060FD58B06EF
:103700000DD52046BDE8704001F085BB2046FFF78F
:1037100097FF70BDFFF794FF0020E06370BD0306C4
:1037200006D50B0604D52046BDE8704001F010BD5B
:103730004006F3D54806F1D5D168204621F0400176
:10374000D160202184F8391000F007F970BD000025
:10375000EB4D000870B5040004D094F83900002542
:1037600010B106E0012070BD84F83850204600F00A
:1037700023F8242084F839002068C16821F400511E
:10378000C160204601F08EFB2068016921F4904160
:1037900001612068416921F02A0141612068C16806
:1037A00041F40051C160E563202084F8390084F8B9
:1037B0003A00002070BD0000F0B50646D0F800C009
:1037C00049480025494902230324072787B0844537
:1037D0002FD1086840F0100008600868694600F0C2
:1037E00010000590C0208DE82900CDE9034740482E
:1037F000FEF720F9404C3F4820604FF00060C4E9DC
:1038000001054014C4E9035080106561C4E9065005
:10381000256220466562FEF769F808B1FDF720FCD5
:103820007463022201212520A663FEF7A9FA252050
:103830001BE02E4A314E121F3148B44519D1116890
:1038400041F400311160116801F4003105916021EB
:103850008DE82A00CDE903476946FEF7EBF8002220
:1038600001212620FEF78CFA2620FEF77EFA07B00B
:10387000F0BD244EB44517D1116841F48021116088
:10388000116801F4802105914FF440718DE82A0000
:10389000CDE903476946FEF7CDF8002211462720FF
:1038A000FEF76EFA2720E0E717488445DFD1086865
:1038B00040F0200008600868694600F0200005908C
:1038C0004FF48440CDE900030120CDE90204082033
:1038D00004900E48FEF7AEF8002211464720FEF78E
:1038E0004FFA4720C1E70000001001404438024071
:1038F0000004024040640240000D002000440040EB
:10390000000C024000480040001401400018024032
:1039100090F83A30202B1DD1D1B1CAB190F838308F
:10392000012B17D081628285C2850021C1632222CA
:1039300080F83A2080F8381001684A6942F00102A4
:103940004A610068C16841F49071C160002070470D
:10395000012070470220704770477047FEE7000063
:103960007FB50E2269463B2000F0C2F8BDF800008A
:103970009FED341A41BA31480180BDF8021049BAAE
:103980004180BDF8041049BA8180BDF8061049BADB
:103990000CB284819DF80910428B00EE104A891AFE
:1039A0009DF80820B8EEC00A41EA02210BB2C3819B
:1039B0009DF80B10828BC0EE010A891A9DF80A202F
:1039C000B3EE050A41EA02210AB202829DF80D1007
:1039D000C58B491B9DF80C5041EA05210DB21849D1
:1039E000458206680E6046684E6030EE800A806848
:1039F000886081ED030A00EE103AF8EEC00A9FEDF0
:103A0000120A80EE801ADFED110AC1EE201A01EED3
:103A1000102AC1ED051AF8EEC11A81EE801AC1EE26
:103A2000201A01EE105AC1ED061AF8EEC11A81EE05
:103A3000801A81EE200A81ED070A7FBDF00E00207A
:103A4000101000205CEFA6436F12834133336542B0
:103A500030B585B0002414220F496846FCF7D4FB2A
:103A60006420FDF7CEFF752000F01AF80B494FEAED
:103A70000D05087005EB4400417815F8140000F0BE
:103A800065F80120FDF7BDFF641CE4B20A2CF1D3F8
:103A900005B0002030BD00002499000880010020FE
:103AA000F8B5104E0446002240213046FEF7A8F833
:103AB00044F080000C4C3725E21C20710123511C7E
:103AC0000A480095FFF75CF9E21C0123511C0748E6
:103AD0000095FFF755F9012240213046FEF790F896
:103AE000E078F8BD0014024080010020040A0020A4
:103AF000F8B5134F15460E460446002240213846BD
:103B0000FEF77EF80F4944F0800037248871C91D04
:103B10008A1E08700123491E0B480094FFF730F9F4
:103B200008492B463246C91D07480094FFF728F97B
:103B3000012240213846FEF763F80020F8BD00005E
:103B40000014024080010020040A0020F8B5114F43
:103B50000E460446002240213846FEF751F804F094
:103B60007F000D4C3725621CA0700123511C0B48AF
:103B70000095FFF705F9A670621C0123511C074848
:103B80000095FFF7FDF8012240213846FEF738F88E
:103B90000020F8BD0014024080010020040A00202B
:103BA000104810B50E4901600321416000214FF417
:103BB00000228160C0E903124FF44012C0E90521E0
:103BC000C1610162416281620121C162FDF7A2FB14
:103BD000002803D0BDE81040FDF742BA10BD000038
:103BE0000064004084090020104810B50E490160AF
:103BF0000321416000214FF400228160C0E90312DB
:103C00004FF44012C0E90521C16101624162816245
:103C10000121C162FDF77EFB002803D0BDE8104002
:103C2000FDF71EBA10BD000000680040C409002066
:103C30000D4808B5016841F4800101600068002268
:103C400000F48000009011463920FEF799F83920E1
:103C5000FEF78BF8002211463A20FEF791F8BDE8F6
:103C600008403A20FEF781B8303802402DE9F04F85
:103C7000514887B00024016841F0100101600168DB
:103C800001F010010591016841F0400101600168F7
:103C900001F040010591016841F0020101600168F5
:103CA00001F002010591016841F001010160016824
:103CB00001F001010591016841F00801016001680E
:103CC00001F008010591016841F48071016001680B
:103CD00001F480710591016841F080010160016883
:103CE00001F080010591016841F020010160006848
:103CF000DFF8C89000F02000059000228C21484693
:103D0000FDF77EFFDFF8B8A04FF4005700223946D8
:103D10005046FDF775FFDFF8ACB044F240080022D2
:103D200041465846FDF76CFF0C200125CDE9000502
:103D30000320CDE9024069464846FDF77BFE022696
:103D400021480096CDE9010469464846FDF772FE18
:103D50000097CDE90154694650460394FDF76AFE89
:103D6000CDF80080CDE90154694658460394FDF72B
:103D700061FEA802CDE90004694614480294FDF7EB
:103D800059FE80200090CDE90154694648460394CD
:103D9000FDF750FE0096CDE9015469465846FDF7FF
:103DA00049FE022200210720FDF7EAFF0720FDF768
:103DB000DCFF07B0BDE8F08F303802400010024051
:103DC000001802400014024000001110000C0240D4
:103DD000104810B50E4901604FF482714160002116
:103DE0008160C1604FF400720161C0E905123022A8
:103DF000C0E90721416281620A21C162FEF75AFFD0
:103E0000002803D0BDE81040FDF72AB910BD00001E
:103E100000500140040A002010B520488CB01E4913
:103E2000016053210024C0E9011440F6C311C0E928
:103E30000314FFF701F908B1FDF712F94FF48050B0
:103E4000079007A91548FFF783F908B1FDF708F9AE
:103E50001248FFF786FB08B1FDF702F960200090D9
:103E60004FF47A70CDE90104002269460B480494AE
:103E7000FFF70FFB08B1FDF7F3F804226946074886
:103E80000194FFF706FB08B1FDF7EAF80348FFF7D6
:103E90008DFA0CB010BD000000180040C40B0020CB
:103EA00010B52A488EB04FF08041016053210024A4
:103EB000C0E901144FF47A71C0E90314FFF7BCF8AC
:103EC00008B1FDF7CDF84FF48050079007A91F48BF
:103ED000FFF73EF908B1FDF7C3F81C48FFF741FBB7
:103EE00008B1FDF7BDF80B940BA918480C94FFF727
:103EF0007BF808B1FDF7B4F86020CDE90004029426
:103F00000022694611480494FFF7C3FA08B1FDF78F
:103F1000A7F8042269460D48FFF7BBFA08B1FDF780
:103F20009FF8082269460948FFF7B3FA08B1FDF780
:103F300097F80C2269460548FFF7ABFA08B1FDF780
:103F40008FF80248FFF732FA0EB010BD5C0A00206D
:103F500010B51E488EB01C49016053210024C0E9F1
:103F60000114C4600461FFF767F808B1FDF778F841
:103F70004FF48050079007A91448FFF7E9F808B1FB
:103F8000FDF76EF81148FFF7ECFA08B1FDF768F895
:103F90000B940BA90D480C94FFF726F808B1FDF718
:103FA0005FF86020CDE900040294002269460748CA
:103FB0000494FFF76EFA08B1FDF752F80348FFF7D3
:103FC000F5F90EB010BD000000040040980A002072
:103FD00010B529488EB027490024C0E90014846038
:103FE000C4600461FFF728F808B1FDF739F84FF411
:103FF0008050079007A92048FFF7AAF808B1FDF7FD
:104000002FF81D48FFF7ADFA08B1FDF729F80B941A
:104010000BA919480C94FEF7E7FF08B1FDF720F84B
:104020006020CDE9000402940022694612480494FD
:10403000FFF72FFA08B1FDF713F8042269460E487E
:10404000FFF727FA08B1FDF70BF8082269460A487E
:10405000FFF71FFA08B1FDF703F80C22694606487E
:10406000FFF717FA08B1FCF7FBFF0348FFF79EF9CB
:104070000EB010BD00080040D40A002010B5294839
:104080008EB027490024C0E900148460C460046134
:10409000FEF7D2FF08B1FCF7E3FF4FF48050079022
:1040A00007A92048FFF754F808B1FCF7D9FF1D48CD
:1040B000FFF757FA08B1FCF7D3FF0B940BA9194887
:1040C0000C94FEF791FF08B1FCF7CAFF6020CDE920
:1040D000000402940022694612480494FFF7D9F9BB
:1040E00008B1FCF7BDFF042269460E48FFF7D1F97D
:1040F00008B1FCF7B5FF082269460A48FFF7C9F97D
:1041000008B1FCF7ADFF0C2269460648FFF7C1F97C
:1041100008B1FCF7A5FF0348FFF748F90EB010BD42
:10412000000C0040100B00201CB50E480C49002468
:1041300001605321C0E901144FF47A71C160FEF7A8
:104140007BFF08B1FCF78CFF009469460548019499
:10415000FEF74AFF002801D0FCF782FF1CBD0000DB
:10416000001000404C0B002010B5344894B0324988
:104170000160A7210024C0E90114C4600461446106
:10418000FEF75AFF08B1FCF76BFF4FF480500E901A
:104190000EA92A48FEF7DCFF08B1FCF761FF2748AB
:1041A000FFF7DFF908B1FCF75BFF129412A923486F
:1041B0001394FEF719FF08B1FCF752FF6020CDE918
:1041C00000040294039404940594002269461B4859
:1041D0000694FFF75EF908B1FCF742FF0422694636
:1041E0001648FFF756F908B1FCF73AFF082269466E
:1041F0001248FFF74EF908B1FCF732FF0C2269466E
:104200000E48FFF746F908B1FCF72AFF0794089417
:1042100009944FF400500A94CDE90B4007A90748D0
:104220000D94FEF7C0FE08B1FCF71AFF0348FFF734
:10423000BDF814B010BD000000040140880B002040
:104240000C4810B50A4901600B49416000218160AA
:104250000C22C160C0E904128161C161FFF77AFAE2
:10426000002803D0BDE81040FCF7FABE10BD0000E6
:1042700000100140000C0020A08601000D4810B580
:104280000B4901604FF4E1314160002181600C2253
:10429000C160C0E9041281610A46C161FDF71EFDDB
:1042A000002803D0BDE81040FCF7DABE10BD0000C6
:1042B00000440040400C00200D4810B50B4901603F
:1042C0004FF4E1314160002181600C22C160C0E9FE
:1042D000041281610A46C161FDF700FD002803D088
:1042E000BDE81040FCF7BCBE10BD00000048004017
:1042F000800C00200D4810B50B4901604FF4E131EE
:104300004160002181600C22C160C0E9041281611A
:104310000A46C161FDF7E2FC002803D0BDE8104069
:10432000FCF79EBE10BD000000140140C00C002030
:1043300010B500220849094801F0ABF908490748BF
:1043400001F055FB0749054801F004F8BDE81040AD
:10435000024801F099BB00001C0100202803002046
:10436000E000002050010020FEE770470907090E19
:10437000002806DA00F00F0000F1E02080F8141D9C
:10438000704700F1E02080F8001470470148FDF705
:1043900073BE00004C0500202DE9F84F0F46C1EB1D
:1043A000C70100EB810582460668D5E91301441A6E
:1043B000286C3835A04200D20446E01C4FEA900831
:1043C00006EB471916E0441AA868A04200D204463A
:1043D000E01C4FEA90089AF810000090A3B2FAB2DD
:1043E0003046E96802F0CEF8E8682044E860A86941
:1043F0002044A861D9F8180980B2404505D9D5E90B
:104400000501814201D20028DDD134B90120D6F85E
:104410003418B8408143C6F834180020BDE8F88F3E
:1044200000B59FED625AB0EE453A9FED614AF0EE5D
:10443000442AB0EE442AF0EE441ADFED5E4AB0EEB4
:10444000641ADFED5D0ADFED5D3A5D48B0EE630AA8
:1044500000F05AF9B0EE453AF0EE442AB0EE442AA4
:10446000F0EE441AB0EE641AF0EE640A9FED555A6D
:104470005348B0EE450A403000F046F9B0EE443AF9
:10448000F0EE442AB0EE442AF0EE441AB0EE641A7C
:10449000DFED4D0A4A48B3EE040A803000F034F9EB
:1044A0009FED4A3A4648F0EE442AB0EE442AF0EE38
:1044B000441AB0EE641AF0EE640AB3EE040AC03097
:1044C00000F022F9B0EE443AF0EE442AB0EE442A6D
:1044D000F0EE441AB0EE641ADFED3D0AB0EE450A84
:1044E0003C4800F011F99FED3C5A3A48F0EE442A5E
:1044F000B0EE453AB0EE442AF0EE441AB0EE641A3B
:10450000F0EE640AB3EE090A403000F0FDF83148DD
:10451000B0EE453AF0EE442AB0EE442AF0EE441AEA
:10452000B0EE641ADFED2D0AB2EE080A803000F01A
:10453000EBF89FED2C4A9FED2A5ADFED2B5A2548C8
:10454000B0EE453AF0EE442AB0EE442AF0EE441ABA
:10455000B0EE641AF0EE650AB3EE090AC03000F05E
:10456000D3F8B0EE453AF0EE442AB0EE442AF0EE2D
:10457000441AB0EE641AF0EE650AB3EE090A1B485D
:1045800000F0C2F819489FED1A3AF0EE632AB0EE37
:10459000632AF0EE631AB0EE641AF7EE000AB2EE88
:1045A000040A40305DF804EB00F0AEB8000096431A
:1045B00000409C45000000009A99993E0000C842C6
:1045C00028130020000070429A99193E0000C84349
:1045D000CDCCCC3D2814002000401C463333333F63
:1045E00000606A4600C05A460AD7233C28150020BE
:1045F0000000484390ED042A3F4A80ED032A90ECE6
:10460000020A70EE600AC0ED040A90ED020A30EE74
:10461000200A80ED020A90ED051A10EE101A21EE24
:10462000201A70EEC20A914280ED081AD0ED061AE7
:1046300061EE801AC0ED091A90ED072A60EE820A39
:10464000C0ED0A0A02DD9FED2D0A06E010EE101AF9
:104650002B4A914203D99FED2B0A80ED020A90ED7F
:104660000B0AB4EEC01AF1EE10FA06DCB1EE400A05
:10467000B4EEC01AF1EE10FA01D280ED080A90ED06
:104680000C0AF4EEC01AF1EE10FA06DCB1EE400AA4
:10469000F4EEC01AF1EE10FA01D280ED090A90EDA5
:1046A0000D0AF4EEC00AF1EE10FA06DCB1EE400A93
:1046B000F4EEC00AF1EE10FA01D280ED0A0A90ED94
:1046C000080AD0ED090A30EE200AD0ED0A0A30EED1
:1046D000200A80ED0E0AD0ED0F0AB4EEE00AF1EEEA
:1046E00010FA06DCF1EE600AB4EEE00AF1EE10FA20
:1046F00001D2C0ED0E0A70470000FA440000FA44EF
:104700000000FAC40000FAC400F1140181EC030AAD
:104710009FED040A80ED020A80ED0F3A2C30C0ECC8
:10472000031A70470000000010B504462DED048BFD
:10473000B0EE418AF0EE608A0A4860640A48A064DC
:10474000B0EE409A204604F06DFDA16CB0EE481A20
:10475000F0EE680AB0EE490ABDEC048B2046BDE8D5
:10476000104008472592000835920008704738B578
:104770000B46009204460022802100F008F8002831
:1047800004D0606D40F020006065032038BD2DE945
:10479000F0411D4617460E460446DDF8188035E008
:1047A000681C33D02DB1FDF731FAA0EB0800A84208
:1047B0002CD32068416821F0E00141606068B0F5C9
:1047C000827F0BD1A068B0F5004F02D0B0F5806FAA
:1047D00004D12068016821F040010160A06AB0F5B1
:1047E000005F0AD1206801684DF6FF721140016038
:1047F0002068016841F400510160012084F85100F3
:10480000002084F850000320BDE8F0812068806813
:1048100036EA000004D00020B842C1D10020F3E7FE
:104820000120F9E770471CB50B0A8DF800308DF8B0
:104830000110110A8DF8021000218DF8032001915A
:10484000082340F2FF126946FCF7E2F81CBD1CB5D4
:104850000B0A8DF800308DF8011011880823090A21
:104860008DF8021011788DF803105188090A8DF81F
:10487000041091788DF8051000218DF806108DF840
:1048800007109A016946FCF7C3F81CBD06491528B4
:1048900008D0064A32F81000034A083A106040086F
:1048A000086070470020FBE734040040D4980008FB
:1048B000232803D20249085CFFF7E8BF70470000D5
:1048C000FE9800082DE9F0412348244C244E02783C
:1048D0006078002506F1C80740B320893254401C97
:1048E00081B2218105290BD17078B278093040EA74
:1048F000022020706070304601F0EEFE00B9657055
:104900002189607881420FD1154801F0C7FE50B16E
:104910000020218903E0325C3A54401CC0B2884236
:10492000F9D300F01FF86570BDE8F081A52AFBD12E
:104930002581002128467554491CC9B2C829F9D3DC
:1049400072556D1C25812E21617000217854491CFF
:10495000C9B22E29FAD3E7E7540E0020A80200209E
:104960006C10002070B594B0FDF750F92A49086228
:104970002A49087800281ED0294B002518781128CC
:104980001BD00A2828D00F2834D01D2813D16C46FC
:1049900000228D5CA554521CD2B28242F9D3DDF8BC
:1049A00007005861DDF80F009861DDF81300D86149
:1049B000BDF81700D88114B070BD0CAC00228E5C1D
:1049C000A654521CD2B28242F9D39DF83A005871D3
:1049D000BDF83B0098810BE011AA03E00E5D16556F
:1049E000641CE4B28442F9D39DF84B0000091871AD
:1049F0000D70E0E708AC00228E5CA654521CD2B2C7
:104A00008242F9D39DF8270098719DF82800D8714B
:104A1000DDF829001861EBE7EC0F002034110020CD
:104A2000A802002010B5FDF7F7F8BDE81040FEF72A
:104A3000B4BA000030B5254893B00025016841F0B4
:104A400080510160006800F080501190204801689A
:104A500041F4404101600068022400F4404011909C
:104A60000120009001908005CDE906400C200890BF
:104A70004FF4A870CDE9090407200B906846FDF7B4
:104A8000A7FF00B1FEE70CA90F2081E831004FF429
:104A9000A0500F904FF48050109005210CA8FDF706
:104AA00069FE00B1FEE7FDF723FF4FF47A71B0FB1A
:104AB000F1F0FEF75EFA0420FEF74EFA00221146EE
:104AC000501EFDF75DF913B030BD000040380240C4
:104AD000007000401048016841F4700101600F4807
:104AE000016841F0010101600C4A002108321160A7
:104AF00002680B4B1A400260031D0A4A1A600268E2
:104B000022F48022026005480C30016002495806F8
:104B1000803908607047000088ED00E000380240EE
:104B2000FFFFF6FE1030002410B5FCF7CDF9BDE80C
:104B300010400148FEF786BB4C0B0020F0B5026820
:104B4000234B244D244E254F254C4FF0804C98424A
:104B500009D0604507D0A84205D0B04203D0B84282
:104B600001D0A04204D122F0700E4A6842EA0E023F
:104B700098421BD0604519D0A84217D0B04215D03A
:104B8000B84213D0A04211D0164DA8420ED0164DF7
:104B9000A8420BD0154DA84208D0154DA84205D00B
:104BA000144DA84202D0144DA84203D122F44075FE
:104BB000CA682A4302608A68C2620A6882629842AE
:104BC00001D0A04201D10969016301214161F0BD19
:104BD000000001400004004000080040000C0040BC
:104BE00000040140004001400044014000480140F1
:104BF00000180040001C00400020004010B50123B8
:104C0000046A8B409C430462036A8A401343036234
:104C100010BD10B5846842EA032224F47F440A439D
:104C20002243826010BD826822F070020A4342F083
:104C3000070181607047000030B5026A22F001026E
:104C40000262026A436884690D6824F07304254394
:104C500022F002048A6822430B4CA04202D00B4C83
:104C6000A0420BD122F00804CA6823F44073224307
:104C70004C6922F004021C438B6923434360856125
:104C800049684163026230BD0000014000040140F8
:104C900030B5026A22F010020262026A4368846937
:104CA0000D6824F4E64444EA05248D6822F02002CD
:104CB00042EA05120D4DA84202D00D4DA8420ED178
:104CC000CD6822F0800242EA05124D6923F4406368
:104CD00043EA85038D6922F0400243EA850343607D
:104CE000846149688163026230BD000000000140B8
:104CF0000004014030B5026A22F480720262036A45
:104D00004268C46923F4007324F073050C682C43D3
:104D10008D6843EA05230D4DA84202D00C4DA842F0
:104D20000ED1CD6823F4006343EA05234D6922F4D4
:104D3000405242EA05128D6923F4806342EA05126B
:104D40004260C4614968C163036230BD0000014034
:104D50000004014030B5026A22F480520262046A03
:104D60004268C3690D6823F4E64343EA05238D686E
:104D700024F4005444EA0534084DA84202D0084DFA
:104D8000A84204D14D6922F4804242EA8512426071
:104D9000C36149680164046230BD00000000014045
:104DA0000004014010B5036A046A24F0010404629F
:104DB000846924F0F00444EA021423F00A020A434E
:104DC0008461026210BD10B5036A23F01003036210
:104DD0008369046A23F4704343EA023224F0A00397
:104DE00043EA01118261016210BD10B5806B0021A0
:104DF000C185C184FEF724FC10BD0168CA6822F495
:104E00009072CA6001684A6922F001024A61202159
:104E100080F83A10704710B590F83A10222901D066
:104E2000022010BD8168B1F5805F11D001690029B1
:104E300001681FD0496801F07F03816A4A1C8262C1
:104E40000B70C18D491E0904090CC18518D026E0DC
:104E50000269816A002A0268526805D0D2B20A80CB
:104E6000816A491C8162ECE7C2F308020A80816A08
:104E7000891CF7E74A68816A4B1C83620A70E0E785
:104E80000168CA6822F49072CA6001684A6922F017
:104E900001024A61202180F83A10FEF75DFD0020F2
:104EA00010BD00002DE9F04104460068016921F4BD
:104EB0004052E168114301612168C86849F20C62FF
:104EC00090432369A268E5691A4363692B431A4337
:104ED0000243CA602168486920F44072A069104307
:104EE0004861E1696425B1F5004F9748974A216808
:104EF0004FF032083FD0914201D081427CD1FDF782
:104F000015FD00EBC00101EB001061688900B0FBEA
:104F1000F1F6FDF70BFD00EBC00101EB001061683D
:104F20008900B0FBF1F0B0FBF5F06FF018014843D9
:104F300006EB800108EB0110B0FBF5F000F0F00685
:104F4000FDF7F4FC00EBC00101EB00106168890083
:104F5000B0FBF1F0B0FBF5F006EB0016FDF7E6FC58
:104F600000EBC00101EB001061688900B0FBF1F7B4
:104F7000FDF7DCFCD2E0914201D081423DD1FDF74A
:104F8000D5FC00EBC00101EB001061684900B0FBEB
:104F9000F1F0B0FBF5F00601FDF7C8FC00EBC00135
:104FA00001EB001061684900B0FBF1F7FDF7BEFCB2
:104FB00000EBC00101EB001061684900B0FBF1F0AB
:104FC000B0FBF5F06FF01801484307EB800108EBE8
:104FD000C100B0FBF5F000F0F80006EB4006FDF76D
:104FE000A5FC00EBC00101EB001061684900B0FBBB
:104FF000F1F7FDF79BFC3CE055E0FDF77FFC00EB93
:10500000C00101EB001061684900B0FBF1F0B0FB9A
:10501000F5F00601FDF772FC00EBC00101EB00109A
:1050200061684900B0FBF1F7FDF768FC00EBC001D7
:1050300001EB001061684900B0FBF1F0B0FBF5F046
:105040006FF01801484307EB800108EBC100B0FB8B
:10505000F5F000F0F80006EB4006FDF74FFC00EB22
:10506000C00101EB001061684900B0FBF1F7FDF7EA
:1050700045FC00EBC00101EB001061684900B0FB8A
:10508000F1F0B0FBF5F06FF01801484307EB800139
:1050900008EBC100B0FBF5F000F0070021683044D8
:1050A0008860BDE8F081FDF729FC00EBC00101EB51
:1050B000001061688900B0FBF1F6FDF71FFC00EB02
:1050C000C00101EB001061688900B0FBF1F0B0FB9A
:1050D000F5F06FF01801484306EB800108EB011072
:1050E000B0FBF5F000F0F006FDF708FC00EBC001A6
:1050F00001EB001061688900B0FBF1F0B0FBF5F046
:1051000006EB0016FDF7FAFB00EBC00101EB001007
:1051100061688900B0FBF1F7FDF7F0FB00EBC0011F
:1051200001EB001061688900B0FBF1F0B0FBF5F015
:105130006FF01801484307EB800108EB0110B0FB4A
:10514000F5F000F00F00A9E7001401400010014045
:1051500090F83910212901D0022070478168B1F5FB
:10516000805F016A0BD04A1C0262026809785160B4
:10517000C18C491E0904090CC1840ED017E00988AE
:105180000268C1F30801516001690029016A02D077
:10519000491C0162ECE7891CFBE70168CA6822F040
:1051A0008002CA600068C16841F04001C16000200F
:1051B0007047000010B50448FEF744FABDE81040FF
:1051C000014804F0B1BA0000000C00207047FEF75F
:1051D00003BAD0F8180220B10021C0F81412084612
:1051E00070470220704770B50546D0F8184200F0AD
:1051F0000AFBC4F80C02D5F8180248B1D5F81C1205
:10520000D4F80402CA6804F503719047002070BD09
:10521000022070BD70B504460025812100F055FACA
:105220000121204600F051FA8221204600F04DFA7B
:10523000D4F8180250B1D4F81C0204F50674406882
:105240008047206802F092FD00202060284670BD53
:1052500010B5D0E9864159B194F80002FF2807D073
:105260008B6894F8012221469847FF2084F80002B9
:10527000002010BD0A21018000487047080000206E
:1052800043210180004870475800002043210180DD
:1052900000487047140000204321018000487047F7
:1052A0009C0000202DE9F0410446007C00254FF4CD
:1052B000007670B3402302228121204600F0ECFAF0
:1052C000402302220121204600F0E6FA08230322AF
:1052D0008221204600F0E0FA4FF4077003F056FCFC
:1052E000C4F81802F0B10746D4F81C0200688047E1
:1052F0000020C7F81402C7F81802207CD7F804224F
:1053000090B140230121204600F0D0FA2846BDE8A4
:10531000F081FFE7334602228121204600F0BCFAEB
:105320003346CEE70125F1E73346EBE710B5D0F879
:10533000181269B1027C002AD1F8042205D040235A
:10534000012100F0B3FA002010BD4FF40073F7E71D
:10535000022010BD02460220002902D00020C2F81F
:105360001C127047D0F81802C0F8041200207047D1
:10537000D0F81802C0F81022C0F8081200207047B8
:1053800070B50646D0F8185208780C4610F0600147
:1053900021D0202927D1E288AAB10006607807D55C
:1053A000D6F81C128B6829469847E288294617E0F0
:1053B00085F80002A07985F80102E2882946304686
:1053C00000F038F80FE0D6F81C12607800228B68E5
:1053D0002146984707E060780A2804D10349012252
:1053E000304600F041F8002070BD000004000020AD
:1053F00010B5D0F8142252689047002010BD134613
:1054000010B50A46002100F051FA002010BD1346E5
:1054100010B50A46002100F0CFFA002010BD10B5EB
:105420000446802100F0B1FA2046BDE8104000217A
:1054300000F0ABBA10B50323C0F80821C0F8F4316E
:10544000C0F80C2113460A46002100F02FFA002074
:1054500010BD10B505210023C0F8F4111A461946F5
:1054600000F024FA002010BD10B502238261C0F8BC
:10547000F431C26113460A46002100F09DFA002073
:1054800010BD10B504210023C0F8F4111A461946C6
:1054900000F092FA002010BD10B50A46024903A0A0
:1054A00000F0D4F8004810BD040900204344432014
:1054B000436F6E66696700001220088000487047DD
:1054C0003C01002010B50A46024903A000F0BEF8D6
:1054D000004810BD0409002043444320496E746510
:1054E0007266616365000000042008800048704710
:1054F0003801002010B50A46024903A000F0A6F8C2
:10550000004810BD0409002053544D6963726F6553
:105510006C656374726F6E696373000010B50A4640
:10552000024903A000F092F8004810BD04090020D1
:1055300053544D3332205669727475616C20436F39
:105540006D506F727400000010B50A46024903A046
:1055500000F07CF8004810BD0409002030303030E5
:10556000303030303030314100000000F8B50446B2
:1055700048880D46010A08294BD2DFE801F04A04A9
:1055800009174A4A4048D4F81012207C0A6832E0D1
:10559000207C02260028D4F8140205D0C16A68468F
:1055A00088470146467041E0816AF8E7C0B20628A4
:1055B0002FD2DFE800F003080D12171CD4F81012E8
:1055C000207C4A6817E0D4F81012207C8A6812E028
:1055D000D4F81012207CCA680DE0D4F81012207C98
:1055E0000A6908E0D4F81012207C4A6903E0D4F874
:1055F0001012207C8A6969469047014616E0207C9B
:1056000038B9D4F81402416B68468847F5E7207C26
:1056100020B129462046FFF702FFF8BDD4F8140256
:10562000016B68468847014607204870BDF80000B6
:105630000028F2D0EA88002AEFD0824200D9024640
:10564000ADF800202046FFF70FFFF8BD70B500232E
:1056500000281DD00446002502E06D1CEDB2641C3C
:105660002678002EF9D1022404EB45041480CC5492
:105670005B1C0322CA5400245B1C06E0CA545B1C5A
:10568000DAB28C54521CD3B2401C0278002AF5D1F5
:1056900070BD10B580B1D0F8143213B10023C0F83A
:1056A000143209B1C0F81012012180F8FC11027007
:1056B00000F0AEF8002010BD022010BD10B5D0F8EB
:1056C0002002FCF7F2FB002010BD10B5D0F820023C
:1056D000FCF7C9FB002010BD2DE9F0411746044638
:1056E00041B1D4F8140242698AB394F8FC0103284A
:1056F00042D043E0D4F8F411002504F1140002294B
:1057000033D1D0E902639E4207D9F31A83609AB27B
:1057100039462046FFF77BFE12E04068B0FBF3F10C
:1057200003FB1101A1B9984212D3D4F8F8118842B1
:105730000ED2002211462046FFF769FEC4F8F85148
:1057400000231A461946204600F0B0F80DE012E09A
:10575000D4F81402C16829B194F8FC01032801D1DE
:10576000204688472046FFF774FE94F8000201287F
:1057700004D184F8005201E0204690470020BDE8A3
:10578000F08170B51546044641B1D4F8140282691F
:105790003AB394F8FC01032824D025E0D4F8F4119E
:1057A00004F5827003291FD1D0E902218A420BD966
:1057B000531A83600846834200D303469AB22946AF
:1057C0002046FFF71CFE0FE0D4F81402016929B14E
:1057D00094F8FC01032801D1204688472046FFF7B2
:1057E00050FE01E020469047002070BD0020704729
:1057F00010B5012180F8FC11D0F81422017952680B
:105800009047002010BDD0F82002FCF776BB0000C6
:1058100010B5017841BB15490222C1F8B403C0F8A4
:1058200020124FF0A0400860042048600020C1E929
:105830000320C1E90502C86108624862C8620863C2
:105840000846FCF79BFE08B1FBF70AFC80210748DD
:10585000FCF7C8FA402200210448FCF7C7FA80226E
:1058600001210248FCF7C2FA002010BD4C050020BF
:105870000A0601F07F01D0F82002C1EBC10100EB64
:10588000810002D590F83A00704790F8DE01704729
:10589000002070470020704710B51C461346D0F812
:1058A00020022246FCF733FB002010BD10B5D0F8D3
:1058B0002002FCF757FB002010BD70B50022044603
:1058C00040231146FFF7E8FF40252B4600228021A8
:1058D0002046C4F81051FFF7DFFF0120256284F84D
:1058E000FC01D4F8180228B1D4F8140221794268D6
:1058F00020469047002070BD90F8FD1180F8FC1103
:105900000020704710B590F8FC11032904D1D0F89D
:105910001412C96901B18847002010BD017400202C
:10592000704710B5D0F82002FCF7DEFE002010BD55
:1059300070B5044600F50270054600F044F80120F9
:10594000C4F8F401B4F80E02C4F8F80194F808029F
:1059500010F01F010AD001290DD0022910D000F04B
:105960008001204600F011F8002070BD2946204635
:1059700000F08FF8F8E72946204600F071F9F3E7C8
:105980002946204600F0FEF8EEE710B5D0F82002D8
:10599000FCF717FB002010BD10B5D0F82002FCF773
:1059A000BCFE002010BD90F8FC1180F8FD11042110
:1059B00080F8FC110020704710B5D0F82002FCF7E9
:1059C00030FB002010BD0A7802704A7842708A7855
:1059D000CB7802EB032242800A794B7902EB032257
:1059E00082808A79C97902EB0121C1807047024621
:1059F000002011B1C2F8141270470220704710B590
:105A0000D0F8142202241AB11268904700B9002479
:105A1000204610BD70B50E461A4D8978044629708F
:105A2000012928D894F8FC01022802D0032822D1A9
:105A300005E099B10320616084F8FC0109E091B1AF
:105A4000606888420AD0C1B22046FFF7D1FC2978AD
:105A500061602046FFF7D3FF02280CD02046BDE846
:105A60007040FFF70EBD022084F8FC012046616003
:105A7000FFF7BEFCF2E731462046BDE87040FFF775
:105A8000CEBC00001801002010B5FFF785FF0020F4
:105A900010BD2DE9F04100264B78012532460A2B36
:105AA00043D2DFE803F03C584251420805422A271E
:105AB000FFF75CFD63E004468888C8B9C888B8B9B8
:105AC000887800F07F0794F8FC01032810D084F850
:105AD000FE7139462046FFF724FF2046FFF7D1FC30
